{
  "_format": "hh-sol-artifact-1",
  "contractName": "votingsystem",
  "sourceName": "contracts/votingsystem.sol",
  "abi": [
    {
      "inputs": [],
      "stateMutability": "nonpayable",
      "type": "constructor"
    },
    {
      "inputs": [
        {
          "internalType": "string",
          "name": "name",
          "type": "string"
        }
      ],
      "name": "addCandidate",
      "outputs": [],
      "stateMutability": "nonpayable",
      "type": "function"
    },
    {
      "inputs": [
        {
          "internalType": "uint256",
          "name": "",
          "type": "uint256"
        }
      ],
      "name": "candidates",
      "outputs": [
        {
          "internalType": "string",
          "name": "name",
          "type": "string"
        },
        {
          "internalType": "uint256",
          "name": "vote_count",
          "type": "uint256"
        }
      ],
      "stateMutability": "view",
      "type": "function"
    },
    {
      "inputs": [],
      "name": "getWinner",
      "outputs": [
        {
          "internalType": "string",
          "name": "",
          "type": "string"
        }
      ],
      "stateMutability": "view",
      "type": "function"
    },
    {
      "inputs": [
        {
          "internalType": "address",
          "name": "",
          "type": "address"
        }
      ],
      "name": "hasVoted",
      "outputs": [
        {
          "internalType": "bool",
          "name": "",
          "type": "bool"
        }
      ],
      "stateMutability": "view",
      "type": "function"
    },
    {
      "inputs": [
        {
          "internalType": "uint256",
          "name": "c_index",
          "type": "uint256"
        }
      ],
      "name": "vote",
      "outputs": [
        {
          "internalType": "string",
          "name": "",
          "type": "string"
        }
      ],
      "stateMutability": "nonpayable",
      "type": "function"
    }
  ],
  "bytecode": "0x608060405234801561001057600080fd5b50336000806101000a81548173ffffffffffffffffffffffffffffffffffffffff021916908373ffffffffffffffffffffffffffffffffffffffff1602179055506100b66040518060400160405280601581526020017f436f6e7472616374206465706c6f7965642062793a000000000000000000000081525060008054906101000a900473ffffffffffffffffffffffffffffffffffffffff166100bb60201b60201c565b6102ee565b61015982826040516024016100d192919061028f565b6040516020818303038152906040527f319af333000000000000000000000000000000000000000000000000000000007bffffffffffffffffffffffffffffffffffffffffffffffffffffffff19166020820180517bffffffffffffffffffffffffffffffffffffffffffffffffffffffff838183161783525050505061015d60201b60201c565b5050565b61017e8161017961018160201b6108f6176101a260201b60201c565b60201c565b50565b60006a636f6e736f6c652e6c6f679050600080835160208501845afa505050565b6101b460201b610b1017819050919050565b6101bc6102bf565b565b600081519050919050565b600082825260208201905092915050565b60005b838110156101f85780820151818401526020810190506101dd565b60008484015250505050565b6000601f19601f8301169050919050565b6000610220826101be565b61022a81856101c9565b935061023a8185602086016101da565b61024381610204565b840191505092915050565b600073ffffffffffffffffffffffffffffffffffffffff82169050919050565b60006102798261024e565b9050919050565b6102898161026e565b82525050565b600060408201905081810360008301526102a98185610215565b90506102b86020830184610280565b9392505050565b7f4e487b7100000000000000000000000000000000000000000000000000000000600052605160045260246000fd5b611490806102fd6000396000f3fe608060405234801561001057600080fd5b50600436106100575760003560e01c80630121b93f1461005c57806309eef43e1461008c5780633477ee2e146100bc578063462e91ec146100ed5780638e7ea5b214610109575b600080fd5b61007660048036038101906100719190610b7e565b610127565b6040516100839190610c3b565b60405180910390f35b6100a660048036038101906100a19190610cbb565b61045d565b6040516100b39190610d03565b60405180910390f35b6100d660048036038101906100d19190610b7e565b61047d565b6040516100e4929190610d2d565b60405180910390f35b61010760048036038101906101029190610e92565b610539565b005b610111610674565b60405161011e9190610c3b565b60405180910390f35b6060600160003373ffffffffffffffffffffffffffffffffffffffff1673ffffffffffffffffffffffffffffffffffffffff16815260200190815260200160002060009054906101000a900460ff16156101b6576040517f08c379a00000000000000000000000000000000000000000000000000000000081526004016101ad90610f27565b60405180910390fd5b60028054905082106101fd576040517f08c379a00000000000000000000000000000000000000000000000000000000081526004016101f490610f93565b60405180910390fd5b60016002838154811061021357610212610fb3565b5b906000526020600020906002020160010160008282546102339190611011565b9250508190555060018060003373ffffffffffffffffffffffffffffffffffffffff1673ffffffffffffffffffffffffffffffffffffffff16815260200190815260200160002060006101000a81548160ff0219169083151502179055506102d06040518060400160405280600f81526020017f566f7465206361737465642062793a000000000000000000000000000000000081525033610917565b6103bc6040518060400160405280601481526020017f43616e64696461746520766f74656420666f723a0000000000000000000000008152506002848154811061031d5761031c610fb3565b5b9060005260206000209060020201600001805461033990611074565b80601f016020809104026020016040519081016040528092919081815260200182805461036590611074565b80156103b25780601f10610387576101008083540402835291602001916103b2565b820191906000526020600020905b81548152906001019060200180831161039557829003601f168201915b50505050506109b3565b6104206040518060400160405280601381526020017f5570646174656420766f746520636f756e743a000000000000000000000000008152506002848154811061040957610408610fb3565b5b906000526020600020906002020160010154610a4f565b6040518060400160405280601381526020017f566f746564207375636365737366756c6c7921000000000000000000000000008152509050919050565b60016020528060005260406000206000915054906101000a900460ff1681565b6002818154811061048d57600080fd5b90600052602060002090600202016000915090508060000180546104b090611074565b80601f01602080910402602001604051908101604052809291908181526020018280546104dc90611074565b80156105295780601f106104fe57610100808354040283529160200191610529565b820191906000526020600020905b81548152906001019060200180831161050c57829003601f168201915b5050505050908060010154905082565b60008054906101000a900473ffffffffffffffffffffffffffffffffffffffff1673ffffffffffffffffffffffffffffffffffffffff163373ffffffffffffffffffffffffffffffffffffffff16146105c7576040517f08c379a00000000000000000000000000000000000000000000000000000000081526004016105be90611117565b60405180910390fd5b6105cf610b1a565b81816000018190525060008160200181815250506002819080600181540180825580915050600190039060005260206000209060020201600090919091909150600082015181600001908161062491906112e3565b506020820151816001015550506106706040518060400160405280601081526020017f43616e6469646174652061646465643a00000000000000000000000000000000815250836109b3565b5050565b606060008080600090505b6002805490508110156106f05782600282815481106106a1576106a0610fb3565b5b90600052602060002090600202016001015411156106e557600281815481106106cd576106cc610fb3565b5b90600052602060002090600202016001015492508091505b80600101905061067f565b506107dd6040518060400160405280601281526020017f57696e6e696e672063616e6469646174653a00000000000000000000000000008152506002838154811061073e5761073d610fb3565b5b9060005260206000209060020201600001805461075a90611074565b80601f016020809104026020016040519081016040528092919081815260200182805461078690611074565b80156107d35780601f106107a8576101008083540402835291602001916107d3565b820191906000526020600020905b8154815290600101906020018083116107b657829003601f168201915b50505050506109b3565b6108416040518060400160405280600e81526020017f57696e6e696e6720766f7465733a0000000000000000000000000000000000008152506002838154811061082a57610829610fb3565b5b906000526020600020906002020160010154610a4f565b6002818154811061085557610854610fb3565b5b9060005260206000209060020201600001805461087190611074565b80601f016020809104026020016040519081016040528092919081815260200182805461089d90611074565b80156108ea5780601f106108bf576101008083540402835291602001916108ea565b820191906000526020600020905b8154815290600101906020018083116108cd57829003601f168201915b50505050509250505090565b60006a636f6e736f6c652e6c6f679050600080835160208501845afa505050565b6109af828260405160240161092d9291906113c4565b6040516020818303038152906040527f319af333000000000000000000000000000000000000000000000000000000007bffffffffffffffffffffffffffffffffffffffffffffffffffffffff19166020820180517bffffffffffffffffffffffffffffffffffffffffffffffffffffffff8381831617835250505050610aeb565b5050565b610a4b82826040516024016109c99291906113f4565b6040516020818303038152906040527f4b5c4277000000000000000000000000000000000000000000000000000000007bffffffffffffffffffffffffffffffffffffffffffffffffffffffff19166020820180517bffffffffffffffffffffffffffffffffffffffffffffffffffffffff8381831617835250505050610aeb565b5050565b610ae78282604051602401610a65929190610d2d565b6040516020818303038152906040527fb60e72cc000000000000000000000000000000000000000000000000000000007bffffffffffffffffffffffffffffffffffffffffffffffffffffffff19166020820180517bffffffffffffffffffffffffffffffffffffffffffffffffffffffff8381831617835250505050610aeb565b5050565b610b0281610afa6108f6610b05565b63ffffffff16565b50565b610b10819050919050565b610b1861142b565b565b604051806040016040528060608152602001600081525090565b6000604051905090565b600080fd5b600080fd5b6000819050919050565b610b5b81610b48565b8114610b6657600080fd5b50565b600081359050610b7881610b52565b92915050565b600060208284031215610b9457610b93610b3e565b5b6000610ba284828501610b69565b91505092915050565b600081519050919050565b600082825260208201905092915050565b60005b83811015610be5578082015181840152602081019050610bca565b60008484015250505050565b6000601f19601f8301169050919050565b6000610c0d82610bab565b610c178185610bb6565b9350610c27818560208601610bc7565b610c3081610bf1565b840191505092915050565b60006020820190508181036000830152610c558184610c02565b905092915050565b600073ffffffffffffffffffffffffffffffffffffffff82169050919050565b6000610c8882610c5d565b9050919050565b610c9881610c7d565b8114610ca357600080fd5b50565b600081359050610cb581610c8f565b92915050565b600060208284031215610cd157610cd0610b3e565b5b6000610cdf84828501610ca6565b91505092915050565b60008115159050919050565b610cfd81610ce8565b82525050565b6000602082019050610d186000830184610cf4565b92915050565b610d2781610b48565b82525050565b60006040820190508181036000830152610d478185610c02565b9050610d566020830184610d1e565b9392505050565b600080fd5b600080fd5b7f4e487b7100000000000000000000000000000000000000000000000000000000600052604160045260246000fd5b610d9f82610bf1565b810181811067ffffffffffffffff82111715610dbe57610dbd610d67565b5b80604052505050565b6000610dd1610b34565b9050610ddd8282610d96565b919050565b600067ffffffffffffffff821115610dfd57610dfc610d67565b5b610e0682610bf1565b9050602081019050919050565b82818337600083830152505050565b6000610e35610e3084610de2565b610dc7565b905082815260208101848484011115610e5157610e50610d62565b5b610e5c848285610e13565b509392505050565b600082601f830112610e7957610e78610d5d565b5b8135610e89848260208601610e22565b91505092915050565b600060208284031215610ea857610ea7610b3e565b5b600082013567ffffffffffffffff811115610ec657610ec5610b43565b5b610ed284828501610e64565b91505092915050565b7f596f75206861766520616c726561647920766f74656400000000000000000000600082015250565b6000610f11601683610bb6565b9150610f1c82610edb565b602082019050919050565b60006020820190508181036000830152610f4081610f04565b9050919050565b7f496e76616c69642063616e64696461746520696e646578000000000000000000600082015250565b6000610f7d601783610bb6565b9150610f8882610f47565b602082019050919050565b60006020820190508181036000830152610fac81610f70565b9050919050565b7f4e487b7100000000000000000000000000000000000000000000000000000000600052603260045260246000fd5b7f4e487b7100000000000000000000000000000000000000000000000000000000600052601160045260246000fd5b600061101c82610b48565b915061102783610b48565b925082820190508082111561103f5761103e610fe2565b5b92915050565b7f4e487b7100000000000000000000000000000000000000000000000000000000600052602260045260246000fd5b6000600282049050600182168061108c57607f821691505b60208210810361109f5761109e611045565b5b50919050565b7f596f7520646f206e6f7420686176652061636365737320746f20646f2074686160008201527f7400000000000000000000000000000000000000000000000000000000000000602082015250565b6000611101602183610bb6565b915061110c826110a5565b604082019050919050565b60006020820190508181036000830152611130816110f4565b9050919050565b60008190508160005260206000209050919050565b60006020601f8301049050919050565b600082821b905092915050565b6000600883026111997fffffffffffffffffffffffffffffffffffffffffffffffffffffffffffffffff8261115c565b6111a3868361115c565b95508019841693508086168417925050509392505050565b6000819050919050565b60006111e06111db6111d684610b48565b6111bb565b610b48565b9050919050565b6000819050919050565b6111fa836111c5565b61120e611206826111e7565b848454611169565b825550505050565b600090565b611223611216565b61122e8184846111f1565b505050565b5b818110156112525761124760008261121b565b600181019050611234565b5050565b601f8211156112975761126881611137565b6112718461114c565b81016020851015611280578190505b61129461128c8561114c565b830182611233565b50505b505050565b600082821c905092915050565b60006112ba6000198460080261129c565b1980831691505092915050565b60006112d383836112a9565b9150826002028217905092915050565b6112ec82610bab565b67ffffffffffffffff81111561130557611304610d67565b5b61130f8254611074565b61131a828285611256565b600060209050601f83116001811461134d576000841561133b578287015190505b61134585826112c7565b8655506113ad565b601f19841661135b86611137565b60005b828110156113835784890151825560018201915060208501945060208101905061135e565b868310156113a0578489015161139c601f8916826112a9565b8355505b6001600288020188555050505b505050505050565b6113be81610c7d565b82525050565b600060408201905081810360008301526113de8185610c02565b90506113ed60208301846113b5565b9392505050565b6000604082019050818103600083015261140e8185610c02565b905081810360208301526114228184610c02565b90509392505050565b7f4e487b7100000000000000000000000000000000000000000000000000000000600052605160045260246000fdfea264697066735822122025f96edbd5d423f828e6adcf176d9a0f08fa3c15df61ed394c895819e477fbfa64736f6c634300081c0033",
  "linkReferences": {},
  "deployedLinkReferences": {}
}